:020000040800F2
:10000000005000201D0200082302000829020008F9
:100010004B020008510200087302000800000000B3
:100020000000000000000000000000009502000831
:100030009B02000800000000A1020008450600081D
:10004000C5020008C5020008C5020008C502000874
:10005000C5020008C5020008C5020008C502000864
:10006000C5020008C5020008C5020008C502000854
:10007000C5020008C5020008C5020008C502000844
:10008000C5020008C5020008C5020008C502000834
:10009000C5020008C5020008C5020008C502000824
:1000A000C5020008C5020008C5020008C502000814
:1000B000C5020008C5020008C5020008C502000804
:1000C000C5020008C5020008C5020008C5020008F4
:1000D000C5020008C5020008C5020008C5020008E4
:1000E000C5020008C5020008C502000800000000A3
:1000F0000000000000000000000000000000000000
:1001000000000000000000005FF808F180B58CB02E
:1001100000AF00F01BFA364BFB60364BBB60364B32
:100120007B60BB683B6007E0FA68131DFB603B68BF
:10013000191D396012681A607A683B689A42F3D8D0
:1001400000BF2E4BBB612E4B7B61BB693B6104E062
:100150003B691A1D3A6100221A607A693B699A422A
:10016000F6D800BF00F000FA264A274BD31A9B109E
:100170003B620023FB6107E0234AFB6952F823300E
:100180009847FB690133FB613A6AFB699A42F3DCE9
:100190001E4A1F4BD31A9B103B620023FB6107E0F2
:1001A0001B4AFB6952F823309847FB690133FB6116
:1001B0003A6AFB699A42F3DC00BF00F067FAF86222
:1001C000144A154BD31A9B10BB62BB6A7B6208E0D2
:1001D0007B6A013B104A52F8233098477B6A013B07
:1001E0007B627B6A002BF3DC00BF00F0DBF9FEE7EB
:1001F000C8060008000000201400002014000020A1
:100200001C000020F4020008F4020008F4020008B8
:10021000F4020008F4020008F40200082548004730
:1002200000BF80B400AFFEE71EF0040F0CBFEFF379
:100230000880EFF3098071461F4A104700BF80B461
:1002400083B000AF78603960FEE780B400AFFEE7AE
:100250001EF0040F0CBFEFF30880EFF30980714626
:10026000164A104700BF80B483B000AF7860396091
:10027000FEE71EF0040F0CBFEFF30880EFF30980D8
:1002800071460F4A104700BF80B483B000AF78605A
:100290003960FEE780B400AFFEE780B400AFFEE750
:1002A00080B400AFFEE780B400AF00BFBD4680BCA5
:1002B000704700000D0100083F02000867020008B7
:0A02C0008902000880B400AFFEE7D9
:1002CC00C80600080000002014000020C806000822
:1002DC000000000000000000140000201C000020A2
:0802EC0000000000000000000A
:1002F40080B500AF154B1B68144A43F0010313602B
:10030400124B5A681149124B13404B600F4B1B6838
:100314000E4A23F0847323F4803313600B4B1B6861
:100324000A4A23F480231360084B5B68074A23F4CA
:10033400FE035360054B4FF41F029A6000F07EF8F1
:10034400044B4FF000629A6000BF80BD0010024071
:100354000000FFF800ED00E080B485B000AF00239A
:10036400FB600023BB6000237B602F4B5B6803F0C2
:100374000C03FB60FB68082B11D0FB68082B3AD8F0
:10038400FB68002B03D0FB68042B04D033E0274B1D
:10039400274A1A6033E0254B254A1A602FE0224B86
:1003A4005B6803F47013BB601F4B5B6803F480331A
:1003B4007B60BB689B0C0233BB607B68002B06D15F
:1003C400BB681C4A02FB03F3184A136017E0164B80
:1003D4005B6803F40033002B06D0BB68154A02FBAC
:1003E40003F3124A13600AE0BB68114A02FB03F3E9
:1003F4000E4A136003E00D4B0D4A1A6000BF0A4B0E
:100404005B681B0903F00F030B4AD35CDBB2FB6090
:10041400064B1A68FB6822FA03F3044A136000BF10
:100424001437BD4680BC7047001002400000002015
:1004340000127A0000093D000400002080B500AFDE
:1004440000F002F800BF80BD80B483B000AF002389
:100454007B6000233B603A4B1B68394A43F480338A
:100464001360374B1B6803F400333B607B68013334
:100474007B603B68002B03D17B68B3F5A06FF0D1A0
:100484002F4B1B6803F40033002B02D001233B6085
:1004940001E000233B603B68012B4BD1294B1B68D7
:1004A400284A43F010031360264B1B68254A23F0A7
:1004B40003031360234B1B68224A43F002031360B7
:1004C4001F4B1F4A5B6853601D4B1D4A5B6853609A
:1004D4001B4B5B681A4A43F480635360184B5B6898
:1004E400174A23F47C135360154B5B68144A43F496
:1004F400E8135360124B1B68114A43F08073136076
:1005040000BF0F4B1B6803F00073002BF9D00C4B9A
:100514005B680B4A23F003035360094B5B68084A8A
:1005240043F00203536000BF054B5B6803F00C0308
:10053400082BF9D100BF0C37BD4680BC704700BF03
:10054400001002400020024080B500AFFFF7D0FE4B
:10055400024B034A9A6000BF80BD00BF00ED00E07B
:100564000000000880B500AFFFF7F6FE00BF80BDB5
:1005740080B400AFBFF34F8F00BF074BDB6803F4B9
:10058400E0620549054B1343CB60BFF34F8F00BFB7
:1005940000BF00BFFCE700BF00ED00E00400FA0567
:1005A40080B500AFFFF7E4FF80B483B000AF03462B
:1005B4003960FB7197F90730002B0BDA3B68DAB22C
:1005C4000C49FB7903F00F03043B1201D2B20B4434
:1005D4001A7609E03B68DAB2074997F90730120145
:1005E400D2B20B4483F8002300BF0C37BD4680BC55
:1005F400704700BF00ED00E000E100E080B582B08C
:1006040000AF78607B68013BB3F1807F01D30123A5
:100614000FE00A4A7B68013B53600F214FF0FF3023
:10062400FFF7C2FF054B00229A60044B07221A60B1
:10063400002318460837BD4680BD00BF10E000E027
:1006440080B400AF044B1B8801339AB2024B1A806A
:1006540000BFBD4680BC70471400002080B500AFC9
:10066400064B1B68064AA2FB03239B091846FFF7A7
:10067400C5FF044B00221A8000BF80BD000000208B
:10068400D34D62101400002080B500AFFFF7E6FFE1
:1006940000F00CF800F003F830BF00BFF8E780B4B6
:1006A40000AF00BFBD4680BC7047000080B400AFFF
:1006B400034B00221A6000BF00BFBD4680BC7047D8
:0406C40018000020FA
:1006C80000A24A0400000000000000000102030428
:0406D8000607080900
:040000050800010DE1
:00000001FF
