:020000040800F2
:10000000005000201D0200082302000829020008F9
:100010004B020008510200087302000800000000B3
:10002000000000000000000000000000F1090008CE
:100030009B02000800000000E10A0008290B0008EC
:10004000C5020008C5020008C5020008C502000874
:10005000C5020008C5020008C5020008C502000864
:10006000C5020008C5020008C5020008C502000854
:10007000C5020008C5020008C5020008C502000844
:10008000C5020008C5020008C5020008C502000834
:10009000C5020008C5020008C5020008C502000824
:1000A000C5020008C5020008C5020008C502000814
:1000B000C5020008C5020008C5020008C502000804
:1000C000C5020008C5020008C5020008C5020008F4
:1000D000C5020008C5020008C5020008C5020008E4
:1000E000C5020008C5020008C502000800000000A3
:1000F0000000000000000000000000000000000000
:1001000000000000000000005FF808F180B58CB02E
:1001100000AF00F03FFA364BFB60364BBB60364B0E
:100120007B60BB683B6007E0FA68131DFB603B68BF
:10013000191D396012681A607A683B689A42F3D8D0
:1001400000BF2E4BBB612E4B7B61BB693B6104E062
:100150003B691A1D3A6100221A607A693B699A422A
:10016000F6D800BF00F024FA264A274BD31A9B107A
:100170003B620023FB6107E0234AFB6952F823300E
:100180009847FB690133FB613A6AFB699A42F3DCE9
:100190001E4A1F4BD31A9B103B620023FB6107E0F2
:1001A0001B4AFB6952F823309847FB690133FB6116
:1001B0003A6AFB699A42F3DC00BF01F019F9F86270
:1001C000144A154BD31A9B10BB62BB6A7B6208E0D2
:1001D0007B6A013B104A52F8233098477B6A013B07
:1001E0007B627B6A002BF3DC00BF00F0FFF9FEE7C7
:1001F000CC14000800000020180000201800002087
:1002000010450020F4020008F4020008F40200087F
:10021000F4020008F4020008F40200082548004730
:1002200000BF80B400AFFEE71EF0040F0CBFEFF379
:100230000880EFF3098071461F4A104700BF80B461
:1002400083B000AF78603960FEE780B400AFFEE7AE
:100250001EF0040F0CBFEFF30880EFF30980714626
:10026000164A104700BF80B483B000AF7860396091
:10027000FEE71EF0040F0CBFEFF30880EFF30980D8
:1002800071460F4A104700BF80B483B000AF78605A
:100290003960FEE780B400AFFEE780B400AFFEE750
:1002A00080B400AFFEE780B400AF00BFBD4680BCA5
:1002B000704700000D0100083F02000867020008B7
:0A02C0008902000880B400AFFEE7D9
:1002CC00CC1400080000002018000020CC140008FA
:1002DC000000000000000000180000201045002065
:0802EC0000000000000000000A
:1003000080B483B000AF78600B46FB70FB78002BA5
:1003100006D0094B9A6908497B6813438B6106E054
:10032000054B9A697B68DB43034913408B6100BF2F
:100330000C37BD4680BC70470010024080B500AF4E
:10034000154B1B68144A43F001031360124B5A68A3
:100350001149124B13404B600F4B1B680E4A23F0A0
:10036000847323F4803313600B4B1B680A4A23F415
:1003700080231360084B5B68074A23F4FE03536035
:10038000054B4FF41F029A6000F07EF8044B4FF0CB
:1003900000629A6000BF80BD001002400000FFF8BC
:1003A00000ED00E080B485B000AF0023FB600023C7
:1003B000BB6000237B602F4B5B6803F00C03FB608A
:1003C000FB68082B11D0FB68082B3AD8FB68002B80
:1003D00003D0FB68042B04D033E0274B274A1A6074
:1003E00033E0254B254A1A602FE0224B5B6803F46B
:1003F0007013BB601F4B5B6803F480337B60BB688A
:100400009B0C0233BB607B68002B06D1BB681C4A87
:1004100002FB03F3184A136017E0164B5B6803F402
:100420000033002B06D0BB68154A02FB03F3124AC7
:1004300013600AE0BB68114A02FB03F30E4A136023
:1004400003E00D4B0D4A1A6000BF0A4B5B681B09A5
:1004500003F00F030B4AD35CDBB2FB60064B1A6858
:10046000FB6822FA03F3044A136000BF1437BD4649
:1004700080BC7047001002400000002000127A008B
:1004800000093D000400002080B500AF00F002F834
:1004900000BF80BD80B483B000AF00237B60002329
:1004A0003B603A4B1B68394A43F480331360374B47
:1004B0001B6803F400333B607B6801337B603B685F
:1004C000002B03D17B68B3F5A06FF0D12F4B1B68D5
:1004D00003F40033002B02D001233B6001E0002332
:1004E0003B603B68012B4BD1294B1B68284A43F0EA
:1004F00010031360264B1B68254A23F00303136087
:10050000234B1B68224A43F0020313601F4B1F4A10
:100510005B6853601D4B1D4A5B6853601B4B5B68F7
:100520001A4A43F480635360184B5B68174A23F4FC
:100530007C135360154B5B68144A43F4E813536013
:10054000124B1B68114A43F08073136000BF0F4BBE
:100550001B6803F00073002BF9D00C4B5B680B4A4F
:1005600023F003035360094B5B68084A43F002031E
:10057000536000BF054B5B6803F00C03082BF9D1F7
:1005800000BF0C37BD4680BC704700BF0010024062
:100590000020024080B500AFFFF7D0FE024B034AB7
:1005A0009A6000BF80BD00BF00ED00E000000008C1
:1005B00080B500AFFFF7F6FE00BF80BD80B400AF8E
:1005C000BFF34F8F00BF074BDB6803F4E0620549C0
:1005D000054B1343CB60BFF34F8F00BF00BF00BF7D
:1005E000FCE700BF00ED00E00400FA0580B500AFB5
:1005F000FFF7E4FF80B588B000AFF860B96013463C
:10060000FB710422FB6802FA03F301211846FFF78D
:1006100077FEBB680F2B63D8BB68072B06D8FB6837
:1006200003F5801342339B02FB6109E0FB6803F58D
:10063000801342339B020433FB61BB68083BBB6001
:10064000FB79282B17D1FB6803F5801342339B02FB
:10065000DA680121BB6801FA03F31846FB6803F569
:10066000801342339B02194642EA0003CB60FB79B8
:1006700003F00F03FB71FB79182B18D1FB6803F50E
:10068000801342339B02DA680121BB6801FA03F34D
:10069000DB431846FB6803F5801342339B0219467F
:1006A00002EA0003CB60FB7903F00F03FB71FB69E7
:1006B0001B68BB61BB689B007B610F227B6902FAF0
:1006C00003F3DB43BA691340BB61FA797B6902FA31
:1006D00003F3BA691343BB61FB69BA691A6000E0AE
:1006E00000BF2037BD4680BD80B483B000AF7860C6
:1006F00039607B6803F5801342339B025A690121FC
:100700003B6801FA03F318467B6803F58013423314
:100710009B02194642EA00034B6100BF0C37BD46FD
:1007200080BC704780B483B000AF786039607B686C
:1007300003F5801342339B021A6901213B6801FAD9
:1007400003F318467B6803F5801342339B02194676
:1007500042EA00030B6100BF0C37BD4680BC704706
:1007600080B483B000AF78607B6803F108027B68D7
:100770005A607B684FF0FF329A607B6803F1080291
:100780007B68DA607B6803F108027B681A617B682A
:1007900000221A6000BF0C37BD4680BC704780B491
:1007A00083B000AF78607B6800221A6100BF0C370D
:1007B000BD4680BC704780B485B000AF78603960BA
:1007C0007B685B68FB603B68FA685A60FB689A6804
:1007D0003B689A60FB689B683A685A60FB683A68B5
:1007E0009A603B687A681A617B681B685A1C7B6850
:1007F0001A6000BF1437BD4680BC704780B485B016
:1008000000AF786039603B681B68BB60BB68B3F1C0
:10081000FF3F03D17B681B69FB600CE07B680833FA
:10082000FB6002E0FB685B68FB60FB685B681B6861
:10083000BA689A42F6D2FB685A683B685A603B68CD
:100840005B683A689A603B68FA689A60FB683A6845
:100850005A603B687A681A617B681B685A1C7B681F
:100860001A6000BF1437BD4680BC704780B485B0A5
:1008700000AF78607B681B69FB607B685B687A68A7
:1008800092689A607B689B687A6852685A60FB68D5
:100890005B687A689A4203D17B689A68FB685A6001
:1008A0007B6800221A61FB681B685A1EFB681A608D
:1008B000FB681B6818461437BD4680BC70470000B3
:1008C00080B584B000AF78600023FB607B6803F0E4
:1008D0000703002B04D07B6823F0070308337B60F9
:1008E00000F008FB164B1B68002B05D1154B23F0BD
:1008F00007031A46124B1A60134B1A687B6813449D
:1009000044F2F732934213D80F4B1A687B681A44AB
:100910000D4B1B689A420BD9094B1A680A4B1B688E
:100920001344FB60084B1A687B681344064A136043
:1009300000F0EEFAFB6818461037BD4680BD00BFD8
:100940001C440020200000201844002080B483B004
:1009500000AF786000BF0C37BD4680BC7047000018
:1009600080B485B000AFF860B9607A60FB68043B82
:10097000FB60FB684FF080721A60FB68043BFB6011
:10098000BB6823F00102FB681A60FB68043BFB6054
:10099000084AFB681A60FB68143BFB607A68FB68D6
:1009A0001A60FB68203BFB60FB6818461437BD46A5
:1009B00080BC7047B909000880B483B000AF002341
:1009C0003B604FF0BF0383F31188BFF36F8FBFF31A
:1009D0004F8F7B6000BF00BF3B68002BFCD000BF87
:1009E00000BF0C37BD4680BC70470000000000000F
:1009F000074B19680868B0E8F00F80F30988BFF367
:100A00006F8F4FF0000080F311884EF00D0E70478D
:100A10002044002000BF00BF06480068006880F343
:100A2000088862B661B6BFF34F8FBFF36F8F00DFE8
:100A300000BF00BF08ED00E080B500AF0C4B1B68A5
:100A40000B4A43F47F031360094B1B68084A43F0C9
:100A50007F43136000F08AF8064B00221A60FFF70C
:100A6000DBFF00F0A1FBFFF7A7FF0023184680BDC6
:100A700020ED00E01400002080B483B000AF4FF000
:100A8000BF0383F31188BFF36F8FBFF34F8F7B607A
:100A900000BF054B1B680133034A136000BF0C37CE
:100AA000BD4680BC704700BF1400002080B483B0F6
:100AB00000AF0A4B1B68013B084A1360074B1B68D9
:100AC000002B05D100237B607B6883F3118800BF76
:100AD00000BF0C37BD4680BC704700BF140000202B
:100AE000EFF30980BFF36F8F0D4B1A6820E9F00F09
:100AF00010602DE908404FF0BF0080F3118800F02E
:100B000053FB4FF0000080F31188BDE808401968DE
:100B10000868B0E8F00F80F30988BFF36F8F704763
:100B20002044002000BF00BF80B582B000AF4FF06E
:100B3000BF0383F31188BFF36F8FBFF34F8F7B60C9
:100B400000BF00F081FA0346002B03D0064B4FF0A4
:100B500080521A6000233B603B6883F3118800BF1A
:100B600000BF0837BD4680BD04ED00E080B400AF93
:100B7000074B00221A60074B00221A60064B074AF7
:100B80001A60034B07221A6000BFBD4680BC704745
:100B900010E000E018E000E014E000E03F19010080
:100BA00080B58CB004AFF860B9603B601346FB8041
:100BB000FB889B001846FFF783FE78617B69002B5A
:100BC0000ED05420FFF77CFEF861FB69002B03D0A8
:100BD000FB697A691A6305E07869FFF7B7FE01E0FF
:100BE0000023FB61FB69002B13D0FA8800230393D9
:100BF000FB690293FB6A0193BB6A00933B68B96887
:100C0000F86800F00EF8F86900F082F80123BB6183
:100C100002E04FF0FF33BB61BB6918462037BD4689
:100C200080BD80B586B000AFF860B9607A603B6087
:100C3000BB6A1A6B7B6803F18043013B9B00134442
:100C40003B613B6923F007033B61BB68002B1FD06E
:100C500000237B6112E0BA687B6913441978BA6A91
:100C60007B69134434330A461A70BA687B691344AB
:100C70001B78002B06D07B6901337B617B690F2BCE
:100C8000E9D900E000BFBB6A002283F8432003E0FB
:100C9000BB6A002283F834203B6A042B01D9042369
:100CA0003B62BB6A3A6ADA62BB6A3A6A5A64BB6AF6
:100CB00000229A64BB6A04331846FFF770FDBB6AD2
:100CC00018331846FFF76BFDBB6ABA6A1A613B6AB4
:100CD000C3F10502BB6A9A61BB6ABA6A5A62BB6A0F
:100CE0000022DA64BB6A002283F850203A68F9686F
:100CF0003869FFF735FE0246BB6A1A607B6A002B33
:100D000002D07B6ABA6A1A6000BF1837BD4680BD40
:100D100080B582B000AF7860FFF7AEFE2A4B1B684B
:100D20000133294A1360294B1B68002B09D1274A3C
:100D30007B681360244B1B68012B10D100F092FAE2
:100D40000DE0234B1B68002B09D1204B1B68DA6A8E
:100D50007B68DB6A9A4202D81C4A7B6813601D4B91
:100D60001B6801331B4A13607B68DB6A01229A40CF
:100D7000194B1B681343184A13607B68DA6A1346E1
:100D80009B0013449B00154A1A447B6804331946A0
:100D90001046FFF710FDFFF789FE0D4B1B68002B77
:100DA0000ED00A4B1B68DA6A7B68DB6A9A4207D26C
:100DB0000B4B4FF080521A60BFF34F8FBFF36F8F12
:100DC00000BF0837BD4680BDE0440020204400201D
:100DD000EC440020FC440020E8440020244400208F
:100DE00004ED00E080B586B000AF78603960002384
:100DF0007B6100F07FF8214B1B683B617B681B68BF
:100E00003A681344FB607B681B683A699A420BD2CC
:100E10007B681B68FA689A4211D2FA683B699A4269
:100E20000DD901237B610AE07B681B68FA689A424E
:100E300003D3FA683B699A4201D901237B617B683D
:100E4000FA681A607B69002B06D0FA683B69D31AEE
:100E50000021184600F066FA00F05AF8B860BB6846
:100E6000002B07D1064B4FF080521A60BFF34F8F13
:100E7000BFF36F8F00BF1837BD4680BDE44400202C
:100E800004ED00E080B584B002AF144B0193002361
:100E900000930023802212491248FFF781FE7860F8
:100EA0007B68012B15D14FF0BF0383F31188BFF38B
:100EB0006F8FBFF34F8F3B6000BF0B4B4FF0FF3284
:100EC0001A600A4B01221A60094B00221A60FFF7D0
:100ED000B3FD00BF0837BD4680BD00BF04450020FC
:100EE000B41400083512000800450020EC4400202E
:100EF000E444002080B400AF044B1B680133034A74
:100F0000136000BFBD4680BC704700BF084500208D
:100F100080B584B000AF0023FB600023BB60FFF707
:100F2000ABFD394B1B68013B374A1360364B1B68DE
:100F3000002B61D1354B1B68002B5DD02EE0344B6C
:100F4000DB68DB68FB60FB6818331846FFF78EFC34
:100F5000FB6804331846FFF789FCFB68DB6A012253
:100F60009A402C4B1B6813432A4A1360FB68DA6AC9
:100F700013469B0013449B00274A1A44FB68043322
:100F800019461046FFF717FCFB68DA6A234B1B680B
:100F9000DB6A9A4202D3224B01221A601C4B1B6867
:100FA000002BCCD1FB68002B01D000F09BF91D4B2E
:100FB0001B687B607B68002B10D000F045F803466F
:100FC000002B02D0164B01221A607B68013B7B602C
:100FD0007B68002BF1D1134B00221A60104B1B6869
:100FE000002B09D00123BB600F4B4FF080521A60D9
:100FF000BFF34F8FBFF36F8FFFF758FDBB681846E5
:101000001037BD4680BD00BF08450020E0440020E9
:10101000B8440020E844002024440020204400205C
:10102000F4440020F044002004ED00E080B483B0DC
:1010300000AF044B1B687B607B6818460C37BD46CD
:1010400080BC7047E444002080B586B000AF002328
:101050007B614A4B1B68002B40F08480484B1B6827
:1010600001333B61464A3B6913603B69002B10D159
:10107000444B1B68FB60444B1B68424A1360424A66
:10108000FB681360414B1B680133404A136000F05A
:1010900029F93F4B1B683A699A4248D3394B1B6880
:1010A0001B68002B04D13A4B4FF0FF321A603EE030
:1010B000344B1B68DB68DB68BB60BB685B687B60CC
:1010C0003A697B689A4203D2314A7B6813602EE00A
:1010D000BB6804331846FFF7C9FBBB689B6A002B4B
:1010E00004D0BB6818331846FFF7C0FBBB68DB6A47
:1010F00001229A40274B1B681343264A1360BB68A2
:10110000DA6A13469B0013449B00234A1A44BB68C7
:10111000043319461046FFF74EFBBB68DA6A1F4BD3
:101120001B68DB6A9A42B9D301237B61B6E71B4B8C
:101130001B68DA6A184913469B0013449B000B4452
:101140001B68012B01D901237B61154B1B68002B08
:1011500001D100F0A9F9134B1B68002B09D0012322
:101160007B6106E00E4B1B6801330D4A136000F0F3
:101170009BF97B6918461837BD4680BD084500209D
:10118000E4440020B0440020B4440020F84400208F
:1011900000450020E8440020244400202044002092
:1011A000F0440020F444002080B485B000AF1C4B14
:1011B0001B68002B03D01B4B01221A602AE0194B3D
:1011C00000221A60184B1B687B607B68B3FA83F3BC
:1011D000FB70FB78C3F11F03FB60FA6813469B00AA
:1011E00013449B00114A1344BB60BB685B685A6898
:1011F000BB685A60BB685A68BB6808339A4204D11E
:10120000BB685B685A68BB685A60BB685B68DB6830
:10121000074A136000BF1437BD4680BC704700BF4B
:1012200008450020F4440020E84400202444002025
:101230002044002080B582B000AF786000F04CF808
:10124000064B1B68012BF9D9054B4FF080521A60F1
:10125000BFF34F8FBFF36F8FF0E700BF2444002030
:1012600004ED00E080B582B000AF00237B600CE0AD
:101270007A6813469B0013449B00104A1344184697
:10128000FFF76EFA7B6801337B607B68042BEFD934
:101290000B48FFF765FA0B48FFF762FA0A48FFF7B9
:1012A0005FFA0A48FFF75CFA094B054A1A60094BD6
:1012B000044A1A6000BF0837BD4680BD24440020A0
:1012C000884400209C440020B8440020CC440020E6
:1012D000B0440020B444002080B400AF00BFBD463D
:1012E00080BC704780B483B000AF0C4B1B681B6898
:1012F000002B04D10A4B4FF0FF321A6008E0074B75
:101300001B68DB68DB687B607B685B68044A136092
:1013100000BF0C37BD4680BC704700BFB044002002
:101320000045002080B584B000AF78603960294B5B
:101330001B68FB60284B1B6804331846FFF796FABE
:101340000346002B0BD1244B1B68DB6A012202FAF7
:1013500003F3DA43214B1B681340204A13607B6878
:10136000B3F1FF3F0AD13B68002B07D01A4B1B6833
:10137000043319461A48FFF71EFA26E0FA687B681C
:101380001344BB60144B1B68BA685A60BA68FB68A8
:101390009A4209D2134B1A680F4B1B680433194643
:1013A0001046FFF72BFA10E00F4B1A680A4B1B6828
:1013B000043319461046FFF721FA0C4B1B68BA6834
:1013C0009A4202D2094ABB68136000BF1037BD467B
:1013D00080BD00BFE444002020440020E8440020F9
:1013E000CC440020B4440020B0440020004500203C
:1013F00080B582B002AF0023019301230093002344
:10140000802203490348FFF7CBFBFFF73BFDFEE7D4
:10141000BC1400081914000880B584B000AF7860CF
:10142000FFF704FE0346FB6003220D210220FFF7B5
:10143000E1F80D210220FFF757F90D210220FFF7F7
:1014400053F9FFF7F3FD0346FB6007F10C03C821D6
:101450001846FFF7C7FC0D210220FFF763F9FFF7DD
:10146000E5FD0346FB6007F10C034FF42F711846AE
:10147000FFF7B8FC0B4B1B6801330A4A1360094B9A
:101480001B68042BD9D1074B00221A60FFF7CEFD51
:101490000346FB6007F10C034FF47A711846FFF71F
:1014A000A1FCCAE70C45002080B400AF00BFBD46D8
:1014B00080BC704749444C45000000004C656442C4
:0B14C0006C696E6B5F50432E313300EF
:1014CC0000A24A0400000000000000000102030416
:0814DC0006070809AAAAAAAA42
:040000050800010DE1
:00000001FF
